:100000000C944D000C946C000C946C000C946C00DF
:100010000C946C000C946C000C946C000C946C00B0
:100020000C946C000C946C000C946C000C946C00A0
:100030000C946C000C9425040C946C000C946C00D3
:100040000C946C000C946C000C946C000C946C0080
:100050000C946C000C946C000C946C000C946C0070
:100060000C946C000C946C000C946C000C946C0060
:100070000C946C000C946C000C946C000C946C0050
:100080000C946C000C946C000C946C002903B90265
:10009000CE02090314032103240311241FBECFEF52
:1000A000D0E4DEBFCDBF11E0A0E0B1E0E4E5FAE0CE
:1000B00000E00BBF02C007900D92AA3CB107D9F730
:1000C00012E0AAECB1E001C01D92AC31B107E1F73A
:1000D0000E9474040C9428050C940000CF93C82F40
:1000E0008A3019F48DE00E946E009091C00095FF57
:1000F000FCCFC093C60080E090E0CF91089581309E
:10010000910579F08230910579F00097B9F4019961
:1001100015C02091F3013091F4012130310549F4EB
:100120000DC0019909C00AC0019B08C080E090E0A1
:1001300005C081E090E002C082E090E0009721F0ED
:100140008230910521F0089510920D02089521E06A
:1001500020930D0220930E0208958BE0809381007E
:100160008DE790E0909389008093880082E08093EF
:100170006F0010928500109284008091640190912C
:100180006501A0916601B09167018093CA019093C7
:10019000CB01A093CC01B093CD018FB780688FBF06
:1001A0000895109281000895609364017093650131
:1001B00080936601909367016093CA017093CB01AD
:1001C0008093CC019093CD01089584B1876084B968
:1001D0000895289A089528980895299A29980895A5
:1001E0002A9A81E0982F9A95F1F72A988A95F1F743
:1001F0000895CF93DF93D82FC0E00BC0DD231CF40C
:100200000E94E90002C00E94EB000E94ED00DD0F99
:10021000CF5FC83098F30E94F000DF91CF9108952E
:1002200080E005C0E0E0F0E03197F1F78F5F8233C6
:10023000C8F3089540E050E00CC000002F5F3F4F2E
:1002400002C020E030E0273063E03607B4F34F5FB0
:100250005F4F48175907ACF308955E980E94F90064
:100260005F9A00005F9882E090E00E941A01089572
:1002700081E00E942D010895813120F481580E946F
:100280002D01089581550E942D01089584E690E086
:100290000E941A0188E30E942D0186E00E942D0130
:1002A0008CE00E942D0181E00E942D018AE090E007
:1002B0000E941A0108955E9A0E94F9005F9A000058
:1002C0005F9881E090E00E941A010895FF920F93D9
:1002D0001F93CF93DF93EB010DC0FF24F394F80E2F
:1002E0000E943C018E010F5F1F4F88810E945B01BD
:1002F0008F2DE80198819111F0CFDF91CF911F915F
:100300000F91FF9008950F931F93CF93883090F42F
:100310008B01880F880F880F805C0E942D01C0E040
:1003200007C0F801EC0FF11D80810E945B01CF5FD7
:10033000C830B8F3CF911F910F9108951F93CF93B9
:10034000DF93D82F9DEC699F912D1124969596955A
:10035000969510E3190F990F292F220F220F920F54
:10036000691BC0E3C60F0E943C01812F0E945B0104
:1003700081E08D0F0E943C018C2F0E945B01DF9178
:10038000CF911F910895CF93DF93EC01009721F057
:100390008130910581F01FC080911B0281111BC02B
:1003A000029919C081E00E943C0180E20E945B0139
:1003B000C1E0D0E010C0029B0EC081E10E943C0170
:1003C00080E20E945B0181E00E943C0180E00E948B
:1003D0005B01C0E0D0E0209721F0C130D10571F081
:1003E00019C01092E2011092E3011092E401109200
:1003F000E5011092F4011092F3010CC081E090E04D
:100400009093F4018093F30181E10E943C0182E02A
:100410000E945B01CE01DF91CF9108950F931F934E
:10042000CF93DF938C018130910561F0823091058B
:1004300081F00097B9F480910D02882399F001E0D2
:1004400010E010C080910D02882351F002E010E00E
:1004500009C080910D02811105C000E010E002C0CA
:1004600000E010E00130110559F10230110561F191
:100470000115110509F047C080911B02811143C08D
:100480004EE050E06BE271E08CE291E00E94F304F8
:1004900080E280932B01C0E0D0E00BC08C2F8E5FF8
:1004A0000E943C01FE01E55DFE4F80810E945B01E0
:1004B000219680913B0190E0C817D9077CF323C0B7
:1004C0008DE280932B011FC04EE050E06BE271E0A3
:1004D0008CE291E00E94F30480E280932B01C0E063
:1004E000D0E00BC08C2F8E5F0E943C01FE01E55DC9
:1004F000FE4F80810E945B01219620913B0130E0FC
:10050000C217D3077CF3C801DF91CF911F910F91E0
:100510000895CF93C82F81E00E943C018C2F0E9448
:100520005B01CF9108950F931F93DC0180E007C01A
:10053000FD01E80FF11D9081903259F48F5F082F73
:1005400010E020E030E0041715072607370780F396
:1005500080E01F910F9108950F931F93CF938C010B
:100560008730910508F07AC0FC01EA5BFF4F0C94DC
:10057000EA0485E090E00E9405058F3F19F410928F
:10058000E10102C08093E1010E9438016AE771E055
:1005900082E00E94660103E010E060C0039902C09F
:1005A00005E010E08091D101813009F057C08091C1
:1005B000F3019091F401892B09F050C00E94380199
:1005C00067E971E081E00E9466016091F20180912B
:1005D000E101861788F485E090E00E940D0561EA4C
:1005E00071E081E10E9466016091F2018DE10E945B
:1005F0009E0106E010E032C06DEA71E081E10E94E8
:1006000066016091E1018DE10E949E0106E010E02B
:1006100025C0039905C010921B0204E010E01EC023
:1006200081E080931B021AC0039B18C00E9438010E
:1006300081E00E943C0180E00E945B0102E010E04A
:100640000DC0039B0BC008C0039908C005E010E073
:1006500005C001E010E002C001E010E00230110529
:1006600011F124F40130110551F096C00330110549
:1006700009F489C00630110509F48BC08DC01092B1
:10068000D0018FE08093CF011092F20180E1EAEB7C
:10069000F1E0A1EDB1E001900D928A95E1F781E0E2
:1006A00080931B0279C010921B024FE050E060E083
:1006B00070E081ED91E00E9493028093CF019091D0
:1006C0000E029923A1F090E0FC01EF52FE4F208131
:1006D000213069F410920E022091F2012F5F2093D5
:1006E000F201FC01EF52FE4F20E2208302C0109283
:1006F0000E028091D101843069F48091F3019091D0
:10070000F401892B39F48091F201882319F081508A
:100710008093F2014FE050E060E070E081ED91E005
:100720000E94930280933B01C0E00CC082E08C0FDA
:100730000E943C01EC2FF0E0EF52FE4F80810E94BE
:100740005B01CF5FCF3090F3C091D001C33298F4FA
:100750004EE050E062ED71E081ED91E00E94F30423
:10076000EC2FF0E0E85FFE4F80818093DF01CF5FE8
:10077000C093D00102C01092D0016091F2018FE1CC
:100780000E949E0109C081E080931B0210923B01F0
:1007900003C081E080931B02C801CF911F910F918C
:1007A0000895EF92FF921F93CF93DF9310E044C020
:1007B000C12FD0E0FE01EE0FFF1FE050FF4FE080A1
:1007C000F180D70116964D915D916D917C911997AD
:1007D00012968D919D910D90BC91A02D48175907AF
:1007E0006A077B07B8F0D7011A96ED91FC911B9729
:1007F0008D919C910995F70191838083FE01EE0F05
:10080000FF1FE050FF4F0190F081E02D168217820C
:1008100010861186CC0FDD1FC050DF4FE881F981B3
:1008200086819781A085B185C296A11DB11D868361
:100830009783A087B1871F5F143008F4B9CFDF9189
:10084000CF911F91FF90EF9008951F920F920FB6D6
:100850000F9211240BB60F922F933F934F935F93F8
:100860006F937F938F939F93AF93BF93EF93FF9378
:100870008091CA019091CB01A091CC01B091CD01A2
:100880000197A109B1098093CA019093CB01A0936C
:10089000CC01B093CD01892B8A2B8B2B91F40E9434
:1008A000D1038091640190916501A0916601B0919E
:1008B00067018093CA019093CB01A093CC01B093C0
:1008C000CD01FF91EF91BF91AF919F918F917F915A
:1008D0006F915F914F913F912F910F900BBE0F90B1
:1008E0000FBE0F901F90189511B88FEF82B98AB97B
:1008F0001BB887B918B80E94E5000E94460162E360
:1009000070E080E090E00E94D4000E94AD006CE5B1
:1009100071E080E00E94830164E571E081E00E9463
:1009200083016CE471E082E00E94830164E471E081
:1009300084E00E94830181E00E943C0180E00E94EB
:100940005B01E1E0F2E01182108282E390E0A0E03E
:10095000B0E082839383A483B58386839783A08743
:10096000B18723EC31E033872287E6EEF1E0118294
:10097000108282839383A483B58386839783A08721
:10098000B1872FE730E033872287E5EFF1E011826E
:10099000108282839383A483B58386839783A08701
:1009A000B1878EE092E093878287EFE0F2E01182D8
:1009B00010828AEF90E0A0E0B0E082839383A4836A
:1009C000B58386839783A087B1878CEA92E093876B
:1009D0008287FFCFEE0FFF1F0024001C0BBE079085
:1009E000F691E02D09946817790768F4FB01DC01A2
:1009F000E40FF51FA40FB51F02C002900E924150E4
:100A00005040D8F708950C941F05F999FECF92BD78
:100A100081BDF89A992780B50895262FF999FECFC0
:100A200092BD81BDF89A019700B4021639F01FBA41
:100A300020BD0FB6F894FA9AF99A0FBE0895FB01FB
:100A4000DC0102C001900D9241505040D8F708954A
:040A5000F894FFCF48
:100A54000102E601F5010F022020012020202020C0
:100A64000120202020042020200101202020040433
:100A740020202020010420200120042020202020E8
:100A840020202020202020202020000F050000000E
:100A9400320000000E11110E04040A19000E111187
:100AA4000A040719110A0E11110E040A0E11110E6F
:100AB40007040A1301000000000000020000000007
:100AC4006E0000000000320000004D6F6E7374650C
:100AD400722048756E74657220202050726573739D
:100AE4002053746172740047616D65204F7665729E
:100AF400004E65772053636F72653A20004869673A
:100B0400682053636F72653A200020202020202043
:0A0B140020202020202020202000B7
:00000001FF
